{
  "contractName": "LotteryDA",
  "abi": [
    {
      "inputs": [],
      "stateMutability": "nonpayable",
      "type": "constructor"
    },
    {
      "inputs": [],
      "name": "lastWinner",
      "outputs": [
        {
          "internalType": "address payable",
          "name": "",
          "type": "address"
        }
      ],
      "stateMutability": "view",
      "type": "function",
      "constant": true
    },
    {
      "inputs": [],
      "name": "manager",
      "outputs": [
        {
          "internalType": "address payable",
          "name": "",
          "type": "address"
        }
      ],
      "stateMutability": "view",
      "type": "function",
      "constant": true
    },
    {
      "inputs": [
        {
          "internalType": "uint256",
          "name": "",
          "type": "uint256"
        }
      ],
      "name": "players",
      "outputs": [
        {
          "internalType": "address payable",
          "name": "",
          "type": "address"
        }
      ],
      "stateMutability": "view",
      "type": "function",
      "constant": true
    },
    {
      "inputs": [],
      "name": "enter",
      "outputs": [],
      "stateMutability": "payable",
      "type": "function",
      "payable": true
    },
    {
      "inputs": [],
      "name": "pickWinner",
      "outputs": [],
      "stateMutability": "nonpayable",
      "type": "function"
    },
    {
      "inputs": [],
      "name": "getPlayers",
      "outputs": [
        {
          "internalType": "address payable[]",
          "name": "",
          "type": "address[]"
        }
      ],
      "stateMutability": "view",
      "type": "function",
      "constant": true
    }
  ],
  "bytecode": "0x608060405234801561001057600080fd5b5060008054600160a060020a0319163317905561046a806100326000396000f3fe608060405260043610610082576000357c010000000000000000000000000000000000000000000000000000000090048063e97dcb6211610060578063e97dcb6214610141578063f71d96cb14610149578063fe1881841461017357610082565b8063481c6a75146100875780635d495aea146100c55780638b5b9ccc146100dc575b600080fd5b34801561009357600080fd5b5061009c610188565b6040805173ffffffffffffffffffffffffffffffffffffffff9092168252519081900360200190f35b3480156100d157600080fd5b506100da6101a4565b005b3480156100e857600080fd5b506100f161026d565b60408051602080825283518183015283519192839290830191858101910280838360005b8381101561012d578181015183820152602001610115565b505050509050019250505060405180910390f35b6100da6102dc565b34801561015557600080fd5b5061009c6004803603602081101561016c57600080fd5b5035610363565b34801561017f57600080fd5b5061009c610397565b60005473ffffffffffffffffffffffffffffffffffffffff1681565b60005473ffffffffffffffffffffffffffffffffffffffff1633146101c857600080fd5b6001546000906101d66103b3565b816101dd57fe5b069050600181815481106101ed57fe5b6000918252602082200154600280547fffffffffffffffffffffffff00000000000000000000000000000000000000001673ffffffffffffffffffffffffffffffffffffffff9283161790819055604051911691303180156108fc02929091818181858888f19350505050158015610269573d6000803e3d6000fd5b5050565b606060018054806020026020016040519081016040528092919081815260200182805480156102d257602002820191906000526020600020905b815473ffffffffffffffffffffffffffffffffffffffff1681526001909101906020018083116102a7575b5050505050905090565b662386f26fc100003410156102f057600080fd5b662386f26fc10000340460005b818110156102695760018054808201825560008290527fb10e2d527612073b26eecdfd717e6a320cf44b4afac2b0732d9fcbe2b7fa0cf60180547fffffffffffffffffffffffff00000000000000000000000000000000000000001633179055016102fd565b6001818154811061037057fe5b60009182526020909120015473ffffffffffffffffffffffffffffffffffffffff16905081565b60025473ffffffffffffffffffffffffffffffffffffffff1681565b60004442600160405160200180848152602001838152602001828054801561041157602002820191906000526020600020905b815473ffffffffffffffffffffffffffffffffffffffff1681526001909101906020018083116103e6575b505060408051601f1981840301815291905280516020909101209450505050509056fea264697066735822122067928d1bee4f005fe53df84c8cb025382a4fbf626c9320b53ebacf1f766364cb64736f6c63430006040033",
  "source": "pragma solidity ^0.6.4;\n\n\ncontract LotteryDA{\n  address payable public manager;\n  address payable[] public players;\n  address payable public lastWinner;\n\n  constructor() public{\n    manager = msg.sender;\n  }\n\n  function enter() public payable{\n    require(msg.value >= .01 ether);\n    uint temp = msg.value/(1e16);\n    for (uint i=0; i<temp; i++)\n      players.push(msg.sender);\n  }\n\n  function random() private view returns(uint){\n    return uint(keccak256(abi.encodePacked(block.difficulty, now, players))); // ou sha3();\n    // Eu poderia melhorar esta funcao injectando o clock da maquina, por ex\n    // Esta funcoa nao e muito segura para gerar um numero aleatorio\n  }\n\n  function pickWinner() external restricted{\n    uint index = random() % players.length;\n    lastWinner = players[index];\n    lastWinner.transfer(address(this).balance);\n  }\n\n  modifier restricted(){\n    require(msg.sender == manager);\n    _;\n  }\n\n  function getPlayers() public view returns(address payable[] memory){\n    return players;\n  }\n}",
  "sourcePath": "/home/garibaldi/Documents/Crypto/Apps/lottery/contracts/LotteryDA.sol",
  "compiler": {
    "name": "solc",
    "version": "0.6.4+commit.1dca32f3.Emscripten.clang"
  },
  "schemaVersion": "3.3.1",
  "updatedAt": "2020-11-09T03:03:13.880Z",
  "networkType": "ethereum",
  "devdoc": {
    "methods": {}
  },
  "userdoc": {
    "methods": {}
  }
}