{
  "contractName": "LotteryMap",
  "abi": [
    {
      "inputs": [],
      "stateMutability": "nonpayable",
      "type": "constructor"
    },
    {
      "inputs": [],
      "name": "lastWinner",
      "outputs": [
        {
          "internalType": "address payable",
          "name": "",
          "type": "address"
        }
      ],
      "stateMutability": "view",
      "type": "function"
    },
    {
      "inputs": [],
      "name": "manager",
      "outputs": [
        {
          "internalType": "address payable",
          "name": "",
          "type": "address"
        }
      ],
      "stateMutability": "view",
      "type": "function"
    },
    {
      "inputs": [],
      "name": "numberOfTickets",
      "outputs": [
        {
          "internalType": "uint256",
          "name": "",
          "type": "uint256"
        }
      ],
      "stateMutability": "view",
      "type": "function"
    },
    {
      "inputs": [],
      "name": "enter",
      "outputs": [],
      "stateMutability": "payable",
      "type": "function"
    },
    {
      "inputs": [],
      "name": "pickWinner",
      "outputs": [],
      "stateMutability": "nonpayable",
      "type": "function"
    },
    {
      "inputs": [],
      "name": "getPlayers",
      "outputs": [
        {
          "internalType": "uint256",
          "name": "",
          "type": "uint256"
        }
      ],
      "stateMutability": "view",
      "type": "function"
    }
  ],
  "bytecode": "0x6080604052600060035534801561001557600080fd5b5060008054600160a060020a03191633179055610322806100376000396000f3fe608060405260043610610082576000357c0100000000000000000000000000000000000000000000000000000000900480638b5b9ccc116100605780638b5b9ccc14610103578063e97dcb6214610118578063fe1881841461012057610082565b806345745c1014610087578063481c6a75146100ae5780635d495aea146100ec575b600080fd5b34801561009357600080fd5b5061009c610135565b60408051918252519081900360200190f35b3480156100ba57600080fd5b506100c361013b565b6040805173ffffffffffffffffffffffffffffffffffffffff9092168252519081900360200190f35b3480156100f857600080fd5b50610101610157565b005b34801561010f57600080fd5b5061009c61021c565b610101610222565b34801561012c57600080fd5b506100c3610297565b60035481565b60005473ffffffffffffffffffffffffffffffffffffffff1681565b60005473ffffffffffffffffffffffffffffffffffffffff16331461017b57600080fd5b60006003546101886102b3565b8161018f57fe5b0660008181526001602052604080822054600280547fffffffffffffffffffffffff00000000000000000000000000000000000000001673ffffffffffffffffffffffffffffffffffffffff928316179081905591519394501691303180156108fc0292909190818181858888f19350505050158015610213573d6000803e3d6000fd5b50506000600355565b60035490565b662386f26fc1000034101561023657600080fd5b662386f26fc10000340460005b8181101561029357600380546001818101909255600090815260208290526040902080547fffffffffffffffffffffffff0000000000000000000000000000000000000000163317905501610243565b5050565b60025473ffffffffffffffffffffffffffffffffffffffff1681565b6003546040805144602080830191909152428284015260608083019490945282518083039094018452608090910190915281519101209056fea26469706673582212202cc63fe71ffed9869b95cea7fbcb67eb062d8e8895214a42486b704719d29f5c64736f6c63430006040033",
  "source": "pragma solidity ^0.6.4;\n\n\ncontract LotteryMap{\n  address payable public manager;\n  mapping (uint =>  address payable) players;\n  address payable public lastWinner;\n  uint public numberOfTickets = 0;\n\n  constructor() public{\n    manager = msg.sender;\n  }\n\n  function enter() public payable{\n    require(msg.value >= .01 ether);\n    uint temp = msg.value/(1e16);\n    for (uint i=0; i<temp; i++)\n      players[numberOfTickets++]=msg.sender;\n  }\n\n  function random() private view returns(uint){\n    return uint(keccak256(abi.encodePacked(block.difficulty, now, numberOfTickets))); // ou sha3();\n    // Eu poderia melhorar esta funcao injectando o clock da maquina, por ex\n    // Esta funcoa nao e muito segura para gerar um numero aleatorio\n  }\n\n  function pickWinner() external restricted{\n    uint index = random() % numberOfTickets;\n    lastWinner = players[index];\n    lastWinner.transfer(address(this).balance);\n    numberOfTickets = 0;\n  }\n\n  modifier restricted(){\n    require(msg.sender == manager);\n    _;\n  }\n\n  function getPlayers() public view returns(uint){\n    return numberOfTickets;\n  }\n}",
  "sourcePath": "/home/garibaldi/Documents/Crypto/Apps/lottery/contracts/Lottery.sol",
  "compiler": {
    "name": "solc",
    "version": "0.6.4+commit.1dca32f3.Emscripten.clang"
  },
  "schemaVersion": "3.3.1",
  "updatedAt": "2020-11-08T22:30:09.326Z",
  "devdoc": {
    "methods": {}
  },
  "userdoc": {
    "methods": {}
  }
}