{
  "contractName": "Lottery",
  "abi": [
    {
      "inputs": [],
      "stateMutability": "nonpayable",
      "type": "constructor"
    },
    {
      "inputs": [],
      "name": "lastWinner",
      "outputs": [
        {
          "internalType": "address payable",
          "name": "",
          "type": "address"
        }
      ],
      "stateMutability": "view",
      "type": "function",
      "constant": true
    },
    {
      "inputs": [],
      "name": "manager",
      "outputs": [
        {
          "internalType": "address payable",
          "name": "",
          "type": "address"
        }
      ],
      "stateMutability": "view",
      "type": "function",
      "constant": true
    },
    {
      "inputs": [],
      "name": "numberOfTickets",
      "outputs": [
        {
          "internalType": "uint256",
          "name": "",
          "type": "uint256"
        }
      ],
      "stateMutability": "view",
      "type": "function",
      "constant": true
    },
    {
      "inputs": [
        {
          "internalType": "uint256",
          "name": "",
          "type": "uint256"
        }
      ],
      "name": "players",
      "outputs": [
        {
          "internalType": "address payable",
          "name": "",
          "type": "address"
        }
      ],
      "stateMutability": "view",
      "type": "function",
      "constant": true
    },
    {
      "inputs": [],
      "name": "enter",
      "outputs": [],
      "stateMutability": "payable",
      "type": "function",
      "payable": true
    },
    {
      "inputs": [],
      "name": "pickWinner",
      "outputs": [],
      "stateMutability": "nonpayable",
      "type": "function"
    },
    {
      "inputs": [],
      "name": "getPlayers",
      "outputs": [
        {
          "internalType": "address payable[]",
          "name": "",
          "type": "address[]"
        }
      ],
      "stateMutability": "view",
      "type": "function",
      "constant": true
    }
  ],
  "bytecode": "0x60806040526000611b5a5534801561001657600080fd5b50336000806101000a81548173ffffffffffffffffffffffffffffffffffffffff021916908373ffffffffffffffffffffffffffffffffffffffff160217905550610649806100666000396000f3fe6080604052600436106100705760003560e01c80638b5b9ccc1161004e5780638b5b9ccc1461010e578063e97dcb621461017a578063f71d96cb14610184578063fe188184146101ff57610070565b806345745c1014610075578063481c6a75146100a05780635d495aea146100f7575b600080fd5b34801561008157600080fd5b5061008a610256565b6040518082815260200191505060405180910390f35b3480156100ac57600080fd5b506100b561025d565b604051808273ffffffffffffffffffffffffffffffffffffffff1673ffffffffffffffffffffffffffffffffffffffff16815260200191505060405180910390f35b34801561010357600080fd5b5061010c610282565b005b34801561011a57600080fd5b506101236103da565b6040518080602001828103825283818151815260200191508051906020019060200280838360005b8381101561016657808201518184015260208101905061014b565b505050509050019250505060405180910390f35b610182610478565b005b34801561019057600080fd5b506101bd600480360360208110156101a757600080fd5b810190808035906020019092919050505061051f565b604051808273ffffffffffffffffffffffffffffffffffffffff1673ffffffffffffffffffffffffffffffffffffffff16815260200191505060405180910390f35b34801561020b57600080fd5b50610214610553565b604051808273ffffffffffffffffffffffffffffffffffffffff1673ffffffffffffffffffffffffffffffffffffffff16815260200191505060405180910390f35b611b5a5481565b6000809054906101000a900473ffffffffffffffffffffffffffffffffffffffff1681565b6000809054906101000a900473ffffffffffffffffffffffffffffffffffffffff1673ffffffffffffffffffffffffffffffffffffffff163373ffffffffffffffffffffffffffffffffffffffff16146102db57600080fd5b6000611b5a546102e961057a565b816102f057fe5b069050600181611b58811061030157fe5b0160009054906101000a900473ffffffffffffffffffffffffffffffffffffffff16611b5960006101000a81548173ffffffffffffffffffffffffffffffffffffffff021916908373ffffffffffffffffffffffffffffffffffffffff160217905550611b5960009054906101000a900473ffffffffffffffffffffffffffffffffffffffff1673ffffffffffffffffffffffffffffffffffffffff166108fc479081150290604051600060405180830381858888f193505050501580156103cd573d6000803e3d6000fd5b506000611b5a8190555050565b60608060008090505b611b5a54811161047057600181611b5881106103fb57fe5b0160009054906101000a900473ffffffffffffffffffffffffffffffffffffffff1682828151811061042957fe5b602002602001019073ffffffffffffffffffffffffffffffffffffffff16908173ffffffffffffffffffffffffffffffffffffffff168152505080806001019150506103e3565b508091505090565b662386f26fc1000034101561048c57600080fd5b6000662386f26fc10000348161049e57fe5b04905060008090505b8181101561051b57336001611b5a600081548092919060010191905055611b5881106104cf57fe5b0160006101000a81548173ffffffffffffffffffffffffffffffffffffffff021916908373ffffffffffffffffffffffffffffffffffffffff16021790555080806001019150506104a7565b5050565b600181611b58811061052d57fe5b016000915054906101000a900473ffffffffffffffffffffffffffffffffffffffff1681565b611b5960009054906101000a900473ffffffffffffffffffffffffffffffffffffffff1681565b6000444260016040516020018084815260200183815260200182611b5880156105ee576020028201915b8160009054906101000a900473ffffffffffffffffffffffffffffffffffffffff1673ffffffffffffffffffffffffffffffffffffffff16815260200190600101908083116105a4575b505093505050506040516020818303038152906040528051906020012060001c90509056fea26469706673582212202a4a15143eedd8718d5808da4676ee0f41efc9a0e58dede44836e0b72d16e66c64736f6c63430006040033",
  "source": "pragma solidity ^0.6.4;\n\n\ncontract Lottery{\n  address payable public manager;\n  address payable[7000] public players;\n  address payable public lastWinner;\n  uint public numberOfTickets = 0;\n\n  constructor() public{\n    manager = msg.sender;\n  }\n  \n  function enter() public payable{\n    require(msg.value >= .01 ether);\n    uint temp = msg.value/(1e16);\n    for (uint i=0; i<temp; i++)\n      players[numberOfTickets++]=msg.sender;\n  }\n\n  function random() private view returns(uint){\n    return uint(keccak256(abi.encodePacked(block.difficulty, now, players))); // ou sha3(); \n    // Eu poderia melhorar esta funcao injectando o clock da maquina, por ex\n    // Esta funcoa nao e muito segura para gerar um numero aleatorio\n  }\n\n  function pickWinner() external restricted{\n    uint index = random() % numberOfTickets;\n    lastWinner = players[index];\n    lastWinner.transfer(address(this).balance);\n    numberOfTickets = 0;\n  }\n\n  modifier restricted(){\n    require(msg.sender == manager);\n    _;\n  }\n\n  function getPlayers() external view returns(address payable[] memory ){\n    address payable[] memory p;\n    for(uint i=0; i<= numberOfTickets; i++)\n      p[i] = players[i];\n    return p;\n  }\n}",
  "sourcePath": "/home/garibaldi/Documents/Crypto/Apps/lottery/contracts/Lottery.sol",
  "compiler": {
    "name": "solc",
    "version": "0.6.4+commit.1dca32f3.Emscripten.clang"
  },
  "schemaVersion": "3.3.1",
  "updatedAt": "2020-11-07T01:15:33.637Z",
  "networkType": "ethereum",
  "devdoc": {
    "methods": {}
  },
  "userdoc": {
    "methods": {}
  }
}