{
  "contractName": "LotteryFA",
  "abi": [
    {
      "inputs": [],
      "stateMutability": "nonpayable",
      "type": "constructor"
    },
    {
      "inputs": [],
      "name": "lastWinner",
      "outputs": [
        {
          "internalType": "address payable",
          "name": "",
          "type": "address"
        }
      ],
      "stateMutability": "view",
      "type": "function",
      "constant": true
    },
    {
      "inputs": [],
      "name": "manager",
      "outputs": [
        {
          "internalType": "address payable",
          "name": "",
          "type": "address"
        }
      ],
      "stateMutability": "view",
      "type": "function",
      "constant": true
    },
    {
      "inputs": [],
      "name": "numberOfTickets",
      "outputs": [
        {
          "internalType": "uint256",
          "name": "",
          "type": "uint256"
        }
      ],
      "stateMutability": "view",
      "type": "function",
      "constant": true
    },
    {
      "inputs": [
        {
          "internalType": "uint256",
          "name": "",
          "type": "uint256"
        }
      ],
      "name": "players",
      "outputs": [
        {
          "internalType": "address payable",
          "name": "",
          "type": "address"
        }
      ],
      "stateMutability": "view",
      "type": "function",
      "constant": true
    },
    {
      "inputs": [],
      "name": "enter",
      "outputs": [],
      "stateMutability": "payable",
      "type": "function",
      "payable": true
    },
    {
      "inputs": [],
      "name": "pickWinner",
      "outputs": [],
      "stateMutability": "nonpayable",
      "type": "function"
    },
    {
      "inputs": [],
      "name": "getPlayers",
      "outputs": [
        {
          "internalType": "address payable[]",
          "name": "",
          "type": "address[]"
        }
      ],
      "stateMutability": "view",
      "type": "function",
      "constant": true
    }
  ],
  "bytecode": "0x6080604052600061ea625534801561001657600080fd5b5060008054600160a060020a0319163317905561046b806100386000396000f3fe60806040526004361061008d576000357c0100000000000000000000000000000000000000000000000000000000900480638b5b9ccc1161006b5780638b5b9ccc1461010e578063e97dcb6214610173578063f71d96cb1461017b578063fe188184146101a55761008d565b806345745c1014610092578063481c6a75146100b95780635d495aea146100f7575b600080fd5b34801561009e57600080fd5b506100a76101ba565b60408051918252519081900360200190f35b3480156100c557600080fd5b506100ce6101c1565b6040805173ffffffffffffffffffffffffffffffffffffffff9092168252519081900360200190f35b34801561010357600080fd5b5061010c6101dd565b005b34801561011a57600080fd5b506101236102a5565b60408051602080825283518183015283519192839290830191858101910280838360005b8381101561015f578181015183820152602001610147565b505050509050019250505060405180910390f35b61010c61031f565b34801561018757600080fd5b506100ce6004803603602081101561019e57600080fd5b50356103b3565b3480156101b157600080fd5b506100ce6103de565b61ea625481565b60005473ffffffffffffffffffffffffffffffffffffffff1681565b60005473ffffffffffffffffffffffffffffffffffffffff16331461020157600080fd5b600061ea625461020f6103fb565b8161021657fe5b06905060018161ea60811061022757fe5b015461ea6180547fffffffffffffffffffffffff00000000000000000000000000000000000000001673ffffffffffffffffffffffffffffffffffffffff9283161790819055604051911690303180156108fc02916000818181858888f1935050505015801561029b573d6000803e3d6000fd5b5050600061ea6255565b60608060005b61ea625481116103195760018161ea6081106102c357fe5b0154825173ffffffffffffffffffffffffffffffffffffffff909116908390839081106102ec57fe5b73ffffffffffffffffffffffffffffffffffffffff909216602092830291909101909101526001016102ab565b50905090565b662386f26fc1000034101561033357600080fd5b662386f26fc10000340460005b818110156103af5761ea628054600181810190925533919061ea60811061036357fe5b0180547fffffffffffffffffffffffff00000000000000000000000000000000000000001673ffffffffffffffffffffffffffffffffffffffff92909216919091179055600101610340565b5050565b60018161ea6081106103c157fe5b015473ffffffffffffffffffffffffffffffffffffffff16905081565b61ea615473ffffffffffffffffffffffffffffffffffffffff1681565b61ea62546040805144602080830191909152428284015260608083019490945282518083039094018452608090910190915281519101209056fea26469706673582212203b4c504fb49dbdb5a9f3e2d3643be32cb2b1de7d3c16d84f96989a6b0cd36ca764736f6c63430006040033",
  "source": "pragma solidity ^0.6.4;\n\n\ncontract LotteryFA{\n  address payable public manager;\n  address payable[60000] public players;\n  address payable public lastWinner;\n  uint public numberOfTickets = 0;\n\n  constructor() public{\n    manager = msg.sender;\n  }\n  \n  function enter() public payable{\n    require(msg.value >= .01 ether);\n    uint temp = msg.value/(1e16);\n    for (uint i=0; i<temp; i++)\n      players[numberOfTickets++]=msg.sender;\n  }\n\n  function random() private view returns(uint){\n    return uint(keccak256(abi.encodePacked(block.difficulty, now, numberOfTickets))); // ou sha3(); \n    // Eu poderia melhorar esta funcao injectando o clock da maquina, por ex\n    // Esta funcoa nao e muito segura para gerar um numero aleatorio\n  }\n\n  function pickWinner() external restricted{\n    uint index = random() % numberOfTickets;\n    \n    lastWinner = players[index];\n    lastWinner.transfer(address(this).balance);\n    numberOfTickets = 0;\n  }\n\n  modifier restricted(){\n    require(msg.sender == manager);\n    _;\n  }\n\n  function getPlayers() external view returns(address payable[] memory ){\n    address payable[] memory p;\n    for(uint i=0; i<= numberOfTickets; i++)\n      p[i] = players[i];\n    return p;\n  }\n}",
  "sourcePath": "/home/garibaldi/Documents/Crypto/Apps/lottery/contracts/LotteryFA.sol",
  "compiler": {
    "name": "solc",
    "version": "0.6.4+commit.1dca32f3.Emscripten.clang"
  },
  "schemaVersion": "3.3.1",
  "updatedAt": "2020-11-09T03:03:13.883Z",
  "networkType": "ethereum",
  "devdoc": {
    "methods": {}
  },
  "userdoc": {
    "methods": {}
  }
}