{
  "contractName": "LotteryFactory",
  "abi": [
    {
      "inputs": [],
      "stateMutability": "nonpayable",
      "type": "constructor"
    },
    {
      "anonymous": false,
      "inputs": [
        {
          "indexed": false,
          "internalType": "contract Lottery",
          "name": "lottery",
          "type": "address"
        }
      ],
      "name": "LotteryCreated",
      "type": "event"
    },
    {
      "inputs": [
        {
          "internalType": "uint256",
          "name": "",
          "type": "uint256"
        }
      ],
      "name": "lotteryAdd",
      "outputs": [
        {
          "internalType": "contract Lottery",
          "name": "",
          "type": "address"
        }
      ],
      "stateMutability": "view",
      "type": "function",
      "constant": true
    },
    {
      "inputs": [],
      "name": "manager",
      "outputs": [
        {
          "internalType": "address payable",
          "name": "",
          "type": "address"
        }
      ],
      "stateMutability": "view",
      "type": "function",
      "constant": true
    },
    {
      "inputs": [
        {
          "internalType": "uint256[]",
          "name": "minAmount",
          "type": "uint256[]"
        }
      ],
      "name": "createLottery",
      "outputs": [],
      "stateMutability": "nonpayable",
      "type": "function"
    },
    {
      "inputs": [],
      "name": "getLottery",
      "outputs": [
        {
          "internalType": "contract Lottery[]",
          "name": "",
          "type": "address[]"
        }
      ],
      "stateMutability": "view",
      "type": "function",
      "constant": true
    }
  ],
  "bytecode": "0x608060405234801561001057600080fd5b5060018054600160a060020a031916331790556109b0806100326000396000f3fe608060405234801561001057600080fd5b5060043610610068577c010000000000000000000000000000000000000000000000000000000060003504631fbbbc62811461006d578063257bbe86146100b3578063481c6a7514610158578063cbc2cce714610160575b600080fd5b61008a6004803603602081101561008357600080fd5b50356101b8565b6040805173ffffffffffffffffffffffffffffffffffffffff9092168252519081900360200190f35b610156600480360360208110156100c957600080fd5b8101906020810181356401000000008111156100e457600080fd5b8201836020820111156100f657600080fd5b8035906020019184602083028401116401000000008311171561011857600080fd5b9190808060200260200160405190810160405280939291908181526020018383602002808284376000920191909152509295506101ec945050505050565b005b61008a610543565b61016861055f565b60408051602080825283518183015283519192839290830191858101910280838360005b838110156101a457818101518382015260200161018c565b505050509050019250505060405180910390f35b600081815481106101c557fe5b60009182526020909120015473ffffffffffffffffffffffffffffffffffffffff16905081565b600154815160009173ffffffffffffffffffffffffffffffffffffffff16908390839061021557fe5b6020026020010151604051610229906105ce565b73ffffffffffffffffffffffffffffffffffffffff90921682526020820152604080519182900301906000f080158015610267573d6000803e3d6000fd5b5060018054845192935060009273ffffffffffffffffffffffffffffffffffffffff909116918591811061029757fe5b60200260200101516040516102ab906105ce565b73ffffffffffffffffffffffffffffffffffffffff90921682526020820152604080519182900301906000f0801580156102e9573d6000803e3d6000fd5b5090506000600160009054906101000a900473ffffffffffffffffffffffffffffffffffffffff168460028151811061031e57fe5b6020026020010151604051610332906105ce565b73ffffffffffffffffffffffffffffffffffffffff90921682526020820152604080519182900301906000f080158015610370573d6000803e3d6000fd5b50600080546001810182559080527f290decd9548b62a8d60345a988386fc84ba6bc95484008f6362f93160ef3e56301805473ffffffffffffffffffffffffffffffffffffffff861673ffffffffffffffffffffffffffffffffffffffff19909116811790915560408051918252519192507fe610764cbcba803247df3450b7492f6a0084b7b5b734a7901c13fef8f84ffaf4919081900360200190a1600080546001810182559080527f290decd9548b62a8d60345a988386fc84ba6bc95484008f6362f93160ef3e56301805473ffffffffffffffffffffffffffffffffffffffff841673ffffffffffffffffffffffffffffffffffffffff19909116811790915560408051918252517fe610764cbcba803247df3450b7492f6a0084b7b5b734a7901c13fef8f84ffaf49181900360200190a1600080546001810182559080527f290decd9548b62a8d60345a988386fc84ba6bc95484008f6362f93160ef3e56301805473ffffffffffffffffffffffffffffffffffffffff831673ffffffffffffffffffffffffffffffffffffffff19909116811790915560408051918252517fe610764cbcba803247df3450b7492f6a0084b7b5b734a7901c13fef8f84ffaf49181900360200190a150505050565b60015473ffffffffffffffffffffffffffffffffffffffff1681565b606060008054806020026020016040519081016040528092919081815260200182805480156105c457602002820191906000526020600020905b815473ffffffffffffffffffffffffffffffffffffffff168152600190910190602001808311610599575b5050505050905090565b61039f806105dc8339019056fe6080604052600060035534801561001557600080fd5b5060405161039f38038061039f8339818101604052604081101561003857600080fd5b50805160209091015160008054600160a060020a031916600160a060020a0390931692909217825560045561032c90819061007390396000f3fe608060405260043610610082576000357c0100000000000000000000000000000000000000000000000000000000900480638b5b9ccc116100605780638b5b9ccc14610103578063e97dcb6214610118578063fe1881841461012057610082565b806345745c1014610087578063481c6a75146100ae5780635d495aea146100ec575b600080fd5b34801561009357600080fd5b5061009c610135565b60408051918252519081900360200190f35b3480156100ba57600080fd5b506100c361013b565b6040805173ffffffffffffffffffffffffffffffffffffffff9092168252519081900360200190f35b3480156100f857600080fd5b50610101610157565b005b34801561010f57600080fd5b5061009c61021c565b610101610222565b34801561012c57600080fd5b506100c36102a1565b60035481565b60005473ffffffffffffffffffffffffffffffffffffffff1681565b60005473ffffffffffffffffffffffffffffffffffffffff16331461017b57600080fd5b60006003546101886102bd565b8161018f57fe5b0660008181526001602052604080822054600280547fffffffffffffffffffffffff00000000000000000000000000000000000000001673ffffffffffffffffffffffffffffffffffffffff928316179081905591519394501691303180156108fc0292909190818181858888f19350505050158015610213573d6000803e3d6000fd5b50506000600355565b60035490565b60045434101561023157600080fd5b6000600454662386f26fc1000002348161024757fe5b04905060005b8181101561029d57600380546001818101909255600090815260208290526040902080547fffffffffffffffffffffffff000000000000000000000000000000000000000016331790550161024d565b5050565b60025473ffffffffffffffffffffffffffffffffffffffff1681565b6003546040805144602080830191909152428284015260608083019490945282518083039094018452608090910190915281519101209056fea26469706673582212207e0e89b37933a6d8763f988d53ef876beeb1230c766d4ae4e84028f8b7091b4164736f6c63430006040033a26469706673582212200479a9460e009a05ab0f258494f6cd86455220f0e10bcb5fb38b52588316f69064736f6c63430006040033",
  "source": "pragma solidity ^0.6.4;\n\nimport \"./Lottery.sol\";\n\ncontract LotteryFactory{\n    Lottery[] public lotteryAdd;\n    event LotteryCreated(Lottery lottery);\n\n    address payable public manager;\n\n    constructor() public {\n        manager = msg.sender;\n    }\n\n    function createLottery(uint[] memory minAmount) public {\n        Lottery lotteryGold = new Lottery(manager, minAmount[0]);\n        Lottery lotterySilver = new Lottery(manager, minAmount[1]);\n        Lottery lotteryBronze = new Lottery(manager, minAmount[2]);\n\n        lotteryAdd.push(lotteryGold);\n        emit LotteryCreated(lotteryGold);\n        lotteryAdd.push(lotterySilver);\n        emit LotteryCreated(lotterySilver);\n        lotteryAdd.push(lotteryBronze);\n        emit LotteryCreated(lotteryBronze);\n    }\n\n    function getLottery() external view returns (Lottery[] memory) {\n        return lotteryAdd;\n    }\n}",
  "sourcePath": "/home/garibaldi/Documents/Crypto/Apps/lottery/contracts/LotteryFactory.sol",
  "compiler": {
    "name": "solc",
    "version": "0.6.4+commit.1dca32f3.Emscripten.clang"
  },
  "schemaVersion": "3.3.1",
  "updatedAt": "2020-11-09T03:03:13.875Z",
  "networkType": "ethereum",
  "devdoc": {
    "methods": {}
  },
  "userdoc": {
    "methods": {}
  }
}